{
  "contractName": "Bounty",
  "abi": [
    {
      "inputs": [],
      "payable": true,
      "stateMutability": "payable",
      "type": "constructor"
    },
    {
      "payable": true,
      "stateMutability": "payable",
      "type": "fallback"
    },
    {
      "constant": true,
      "inputs": [],
      "name": "getOwner",
      "outputs": [
        {
          "name": "",
          "type": "address"
        }
      ],
      "payable": false,
      "stateMutability": "view",
      "type": "function"
    },
    {
      "constant": true,
      "inputs": [],
      "name": "greet",
      "outputs": [
        {
          "name": "",
          "type": "string"
        }
      ],
      "payable": false,
      "stateMutability": "pure",
      "type": "function"
    },
    {
      "constant": false,
      "inputs": [
        {
          "name": "name_",
          "type": "string"
        },
        {
          "name": "description_",
          "type": "string"
        },
        {
          "name": "input_",
          "type": "string"
        },
        {
          "name": "output_",
          "type": "string"
        }
      ],
      "name": "createProblem",
      "outputs": [],
      "payable": true,
      "stateMutability": "payable",
      "type": "function"
    },
    {
      "constant": true,
      "inputs": [],
      "name": "getProblemCount",
      "outputs": [
        {
          "name": "problemCount",
          "type": "uint256"
        }
      ],
      "payable": false,
      "stateMutability": "view",
      "type": "function"
    },
    {
      "constant": true,
      "inputs": [
        {
          "name": "id_",
          "type": "uint256"
        }
      ],
      "name": "getProblemSetterAddress",
      "outputs": [
        {
          "name": "setterAddress_",
          "type": "address"
        }
      ],
      "payable": false,
      "stateMutability": "view",
      "type": "function"
    },
    {
      "constant": true,
      "inputs": [
        {
          "name": "id_",
          "type": "uint256"
        }
      ],
      "name": "getProblem",
      "outputs": [
        {
          "name": "setterAddress",
          "type": "address"
        },
        {
          "name": "name",
          "type": "string"
        },
        {
          "name": "description",
          "type": "string"
        },
        {
          "name": "input",
          "type": "string"
        },
        {
          "name": "output",
          "type": "string"
        },
        {
          "name": "priceTag",
          "type": "uint256"
        },
        {
          "name": "isActive",
          "type": "bool"
        }
      ],
      "payable": false,
      "stateMutability": "view",
      "type": "function"
    },
    {
      "constant": false,
      "inputs": [
        {
          "name": "id_",
          "type": "uint256"
        },
        {
          "name": "name_",
          "type": "string"
        }
      ],
      "name": "updateProblemName",
      "outputs": [],
      "payable": false,
      "stateMutability": "nonpayable",
      "type": "function"
    },
    {
      "constant": false,
      "inputs": [
        {
          "name": "id_",
          "type": "uint256"
        },
        {
          "name": "description_",
          "type": "string"
        }
      ],
      "name": "updateProblemDescription",
      "outputs": [],
      "payable": false,
      "stateMutability": "nonpayable",
      "type": "function"
    },
    {
      "constant": false,
      "inputs": [
        {
          "name": "id_",
          "type": "uint256"
        },
        {
          "name": "input_",
          "type": "string"
        }
      ],
      "name": "updateProblemInput",
      "outputs": [],
      "payable": false,
      "stateMutability": "nonpayable",
      "type": "function"
    },
    {
      "constant": false,
      "inputs": [
        {
          "name": "id_",
          "type": "uint256"
        },
        {
          "name": "output_",
          "type": "string"
        }
      ],
      "name": "updateProblemOutput",
      "outputs": [],
      "payable": false,
      "stateMutability": "nonpayable",
      "type": "function"
    },
    {
      "constant": false,
      "inputs": [
        {
          "name": "id_",
          "type": "uint256"
        }
      ],
      "name": "updateProblemPriceTag",
      "outputs": [],
      "payable": true,
      "stateMutability": "payable",
      "type": "function"
    },
    {
      "constant": false,
      "inputs": [
        {
          "name": "id_",
          "type": "uint256"
        }
      ],
      "name": "removeProblem",
      "outputs": [],
      "payable": false,
      "stateMutability": "nonpayable",
      "type": "function"
    },
    {
      "constant": false,
      "inputs": [
        {
          "name": "id_",
          "type": "uint256"
        },
        {
          "name": "content_",
          "type": "string"
        },
        {
          "name": "output_",
          "type": "string"
        }
      ],
      "name": "createSolution",
      "outputs": [],
      "payable": false,
      "stateMutability": "nonpayable",
      "type": "function"
    },
    {
      "constant": true,
      "inputs": [],
      "name": "getSolutionCount",
      "outputs": [
        {
          "name": "solutionCount",
          "type": "uint256"
        }
      ],
      "payable": false,
      "stateMutability": "view",
      "type": "function"
    },
    {
      "constant": true,
      "inputs": [
        {
          "name": "problemID_",
          "type": "uint256"
        }
      ],
      "name": "getSolutionIDsByProblemID",
      "outputs": [
        {
          "name": "solutionIDs_",
          "type": "uint256[]"
        }
      ],
      "payable": false,
      "stateMutability": "view",
      "type": "function"
    },
    {
      "constant": true,
      "inputs": [
        {
          "name": "solutionID_",
          "type": "uint256"
        }
      ],
      "name": "getSolutionBySolutionID",
      "outputs": [
        {
          "name": "solverAddress",
          "type": "address"
        },
        {
          "name": "problemID",
          "type": "uint256"
        },
        {
          "name": "content",
          "type": "string"
        },
        {
          "name": "output",
          "type": "string"
        },
        {
          "name": "isCorrect",
          "type": "bool"
        }
      ],
      "payable": false,
      "stateMutability": "view",
      "type": "function"
    }
  ],
  "bytecode": "0x6080604052336000806101000a81548173ffffffffffffffffffffffffffffffffffffffff021916908373ffffffffffffffffffffffffffffffffffffffff1602179055506120f3806100536000396000f3006080604052600436106100e6576000357c0100000000000000000000000000000000000000000000000000000000900463ffffffff168063010d2446146100e85780630182a6d71461031757806336da3f001461038a57806346bb1edd1461040c578063500eec7b1461053a57806376295e321461056557806376dcf4f51461061e578063793d2bf4146106495780637f35bc0d146106bc578063893d20e8146106dc5780638b4c91cb14610733578063bebcafc714610760578063cdd69a50146108b7578063cfae32171461092a578063d94c70a4146109ba578063f0f397bf14610a2d575b005b3480156100f457600080fd5b5061011360048036038101908080359060200190929190505050610a9a565b604051808873ffffffffffffffffffffffffffffffffffffffff1673ffffffffffffffffffffffffffffffffffffffff168152602001806020018060200180602001806020018781526020018615151515815260200185810385528b818151815260200191508051906020019080838360005b838110156101a1578082015181840152602081019050610186565b50505050905090810190601f1680156101ce5780820380516001836020036101000a031916815260200191505b5085810384528a818151815260200191508051906020019080838360005b838110156102075780820151818401526020810190506101ec565b50505050905090810190601f1680156102345780820380516001836020036101000a031916815260200191505b50858103835289818151815260200191508051906020019080838360005b8381101561026d578082015181840152602081019050610252565b50505050905090810190601f16801561029a5780820380516001836020036101000a031916815260200191505b50858103825288818151815260200191508051906020019080838360005b838110156102d35780820151818401526020810190506102b8565b50505050905090810190601f1680156103005780820380516001836020036101000a031916815260200191505b509b50505050505050505050505060405180910390f35b34801561032357600080fd5b5061038860048036038101908080359060200190929190803590602001908201803590602001908080601f0160208091040260200160405190810160405280939291908181526020018383808284378201915050505050509192919290505050610e18565b005b34801561039657600080fd5b506103b560048036038101908080359060200190929190505050610fb8565b6040518080602001828103825283818151815260200191508051906020019060200280838360005b838110156103f85780820151818401526020810190506103dd565b505050509050019250505060405180910390f35b610538600480360381019080803590602001908201803590602001908080601f0160208091040260200160405190810160405280939291908181526020018383808284378201915050505050509192919290803590602001908201803590602001908080601f0160208091040260200160405190810160405280939291908181526020018383808284378201915050505050509192919290803590602001908201803590602001908080601f0160208091040260200160405190810160405280939291908181526020018383808284378201915050505050509192919290803590602001908201803590602001908080601f0160208091040260200160405190810160405280939291908181526020018383808284378201915050505050509192919290505050611023565b005b34801561054657600080fd5b5061054f6111bc565b6040518082815260200191505060405180910390f35b34801561057157600080fd5b5061061c60048036038101908080359060200190929190803590602001908201803590602001908080601f0160208091040260200160405190810160405280939291908181526020018383808284378201915050505050509192919290803590602001908201803590602001908080601f01602080910402602001604051908101604052809392919081815260200183838082843782019150505050505091929192905050506111c9565b005b34801561062a57600080fd5b506106336114e3565b6040518082815260200191505060405180910390f35b34801561065557600080fd5b506106ba60048036038101908080359060200190929190803590602001908201803590602001908080601f01602080910402602001604051908101604052809392919081815260200183838082843782019150505050505091929192905050506114f0565b005b6106da60048036038101908080359060200190929190505050611690565b005b3480156106e857600080fd5b506106f1611828565b604051808273ffffffffffffffffffffffffffffffffffffffff1673ffffffffffffffffffffffffffffffffffffffff16815260200191505060405180910390f35b34801561073f57600080fd5b5061075e60048036038101908080359060200190929190505050611851565b005b34801561076c57600080fd5b5061078b60048036038101908080359060200190929190505050611a7a565b604051808673ffffffffffffffffffffffffffffffffffffffff1673ffffffffffffffffffffffffffffffffffffffff168152602001858152602001806020018060200184151515158152602001838103835286818151815260200191508051906020019080838360005b838110156108115780820151818401526020810190506107f6565b50505050905090810190601f16801561083e5780820380516001836020036101000a031916815260200191505b50838103825285818151815260200191508051906020019080838360005b8381101561087757808201518184015260208101905061085c565b50505050905090810190601f1680156108a45780820380516001836020036101000a031916815260200191505b5097505050505050505060405180910390f35b3480156108c357600080fd5b5061092860048036038101908080359060200190929190803590602001908201803590602001908080601f0160208091040260200160405190810160405280939291908181526020018383808284378201915050505050509192919290505050611c65565b005b34801561093657600080fd5b5061093f611e05565b6040518080602001828103825283818151815260200191508051906020019080838360005b8381101561097f578082015181840152602081019050610964565b50505050905090810190601f1680156109ac5780820380516001836020036101000a031916815260200191505b509250505060405180910390f35b3480156109c657600080fd5b50610a2b60048036038101908080359060200190929190803590602001908201803590602001908080601f0160208091040260200160405190810160405280939291908181526020018383808284378201915050505050509192919290505050611e42565b005b348015610a3957600080fd5b50610a5860048036038101908080359060200190929190505050611fe2565b604051808273ffffffffffffffffffffffffffffffffffffffff1673ffffffffffffffffffffffffffffffffffffffff16815260200191505060405180910390f35b60006060806060806000806000600360008a815260200190815260200160002090508060060160009054906101000a900460ff161515610b42576040517f08c379a000000000000000000000000000000000000000000000000000000000815260040180806020018281038252600a8152602001807f496e76616c69642049440000000000000000000000000000000000000000000081525060200191505060405180910390fd5b8060000160009054906101000a900473ffffffffffffffffffffffffffffffffffffffff168160010182600201836003018460040185600501548660060160009054906101000a900460ff16858054600181600116156101000203166002900480601f016020809104026020016040519081016040528092919081815260200182805460018160011615610100020316600290048015610c235780601f10610bf857610100808354040283529160200191610c23565b820191906000526020600020905b815481529060010190602001808311610c0657829003601f168201915b50505050509550848054600181600116156101000203166002900480601f016020809104026020016040519081016040528092919081815260200182805460018160011615610100020316600290048015610cbf5780601f10610c9457610100808354040283529160200191610cbf565b820191906000526020600020905b815481529060010190602001808311610ca257829003601f168201915b50505050509450838054600181600116156101000203166002900480601f016020809104026020016040519081016040528092919081815260200182805460018160011615610100020316600290048015610d5b5780601f10610d3057610100808354040283529160200191610d5b565b820191906000526020600020905b815481529060010190602001808311610d3e57829003601f168201915b50505050509350828054600181600116156101000203166002900480601f016020809104026020016040519081016040528092919081815260200182805460018160011615610100020316600290048015610df75780601f10610dcc57610100808354040283529160200191610df7565b820191906000526020600020905b815481529060010190602001808311610dda57829003601f168201915b50505050509250975097509750975097509750975050919395979092949650565b6003600083815260200190815260200160002060000160009054906101000a900473ffffffffffffffffffffffffffffffffffffffff1673ffffffffffffffffffffffffffffffffffffffff163373ffffffffffffffffffffffffffffffffffffffff16141515610ef1576040517f08c379a000000000000000000000000000000000000000000000000000000000815260040180806020018281038252601c8152602001807f4f6e6c792070726f626c656d207365747465722063616e20656469740000000081525060200191505060405180910390fd5b6003600083815260200190815260200160002060060160009054906101000a900460ff161515610f89576040517f08c379a000000000000000000000000000000000000000000000000000000000815260040180806020018281038252600a8152602001807f496e76616c69642049440000000000000000000000000000000000000000000081525060200191505060405180910390fd5b80600360008481526020019081526020016000206001019080519060200190610fb3929190612022565b505050565b60606005600083815260200190815260200160002080548060200260200160405190810160405280929190818152602001828054801561101757602002820191906000526020600020905b815481526020019060010190808311611003575b50505050509050919050565b60008060003411151561109e576040517f08c379a000000000000000000000000000000000000000000000000000000000815260040180806020018281038252601c8152602001807f506c65617365206465706f736974206d6f726520626f756e746965730000000081525060200191505060405180910390fd5b60018054905091506001829080600181540180825580915050906001820390600052602060002001600090919290919091505550600360008381526020019081526020016000209050338160000160006101000a81548173ffffffffffffffffffffffffffffffffffffffff021916908373ffffffffffffffffffffffffffffffffffffffff16021790555085816001019080519060200190611142929190612022565b508481600201908051906020019061115b929190612022565b5083816003019080519060200190611174929190612022565b508281600401908051906020019061118d929190612022565b5034816005018190555060018160060160006101000a81548160ff021916908315150217905550505050505050565b6000600180549050905090565b600080600080600180549050871115151561124c576040517f08c379a00000000000000000000000000000000000000000000000000000000081526004018080602001828103825260118152602001807f50726f626c656d206e6f7420666f756e6400000000000000000000000000000081525060200191505060405180910390fd5b6002805490509350600284908060018154018082558091505090600182039060005260206000200160009091929091909150555060056000888152602001908152602001600020849080600181540180825580915050906001820390600052602060002001600090919290919091505550600460008581526020019081526020016000209250868360010181905550858360020190805190602001906112f3929190612022565b508483600301908051906020019061130c929190612022565b50338360000160006101000a81548173ffffffffffffffffffffffffffffffffffffffff021916908373ffffffffffffffffffffffffffffffffffffffff16021790555060405180807f31323300000000000000000000000000000000000000000000000000000000008152506003019050604051809103902060001916856040518082805190602001908083835b6020831015156113c0578051825260208201915060208101905060208303925061139b565b6001836020036101000a03801982511681845116808217855250505050505090500191505060405180910390206000191614156114bc5760018360040160006101000a81548160ff0219169083151502179055508260000160009054906101000a900473ffffffffffffffffffffffffffffffffffffffff16915060036000888152602001908152602001600020600501549050600060036000898152602001908152602001600020600501819055508173ffffffffffffffffffffffffffffffffffffffff166108fc829081150290604051600060405180830381858888f193505050501580156114b6573d6000803e3d6000fd5b506114da565b60008360040160006101000a81548160ff0219169083151502179055505b50505050505050565b6000600280549050905090565b6003600083815260200190815260200160002060000160009054906101000a900473ffffffffffffffffffffffffffffffffffffffff1673ffffffffffffffffffffffffffffffffffffffff163373ffffffffffffffffffffffffffffffffffffffff161415156115c9576040517f08c379a000000000000000000000000000000000000000000000000000000000815260040180806020018281038252601c8152602001807f4f6e6c792070726f626c656d207365747465722063616e20656469740000000081525060200191505060405180910390fd5b6003600083815260200190815260200160002060060160009054906101000a900460ff161515611661576040517f08c379a000000000000000000000000000000000000000000000000000000000815260040180806020018281038252600a8152602001807f496e76616c69642049440000000000000000000000000000000000000000000081525060200191505060405180910390fd5b8060036000848152602001908152602001600020600301908051906020019061168b929190612022565b505050565b6003600082815260200190815260200160002060000160009054906101000a900473ffffffffffffffffffffffffffffffffffffffff1673ffffffffffffffffffffffffffffffffffffffff163373ffffffffffffffffffffffffffffffffffffffff16141515611769576040517f08c379a000000000000000000000000000000000000000000000000000000000815260040180806020018281038252601c8152602001807f4f6e6c792070726f626c656d207365747465722063616e20656469740000000081525060200191505060405180910390fd5b6003600082815260200190815260200160002060060160009054906101000a900460ff161515611801576040517f08c379a000000000000000000000000000000000000000000000000000000000815260040180806020018281038252600a8152602001807f496e76616c69642049440000000000000000000000000000000000000000000081525060200191505060405180910390fd5b34600360008381526020019081526020016000206005016000828254019250508190555050565b60008060009054906101000a900473ffffffffffffffffffffffffffffffffffffffff16905090565b6000806003600084815260200190815260200160002091508160000160009054906101000a900473ffffffffffffffffffffffffffffffffffffffff1673ffffffffffffffffffffffffffffffffffffffff163373ffffffffffffffffffffffffffffffffffffffff16141515611956576040517f08c379a000000000000000000000000000000000000000000000000000000000815260040180806020018281038252602b8152602001807f204f6e6c792070726f626c656d207365747465722063616e2072656d6f76652081526020017f7468652070726f626c656d00000000000000000000000000000000000000000081525060400191505060405180910390fd5b8160060160009054906101000a900460ff1615156119dc576040517f08c379a00000000000000000000000000000000000000000000000000000000081526004018080602001828103825260198152602001807f50726f626c656d20616c7265616479206172636869657665640000000000000081525060200191505060405180910390fd5b60008260060160006101000a81548160ff02191690831515021790555081600501549050600082600501819055508160000160009054906101000a900473ffffffffffffffffffffffffffffffffffffffff1673ffffffffffffffffffffffffffffffffffffffff166108fc829081150290604051600060405180830381858888f19350505050158015611a74573d6000803e3d6000fd5b50505050565b60008060608060006004600087815260200190815260200160002060000160009054906101000a900473ffffffffffffffffffffffffffffffffffffffff16945060046000878152602001908152602001600020600101549350600460008781526020019081526020016000206002018054600181600116156101000203166002900480601f016020809104026020016040519081016040528092919081815260200182805460018160011615610100020316600290048015611b7e5780601f10611b5357610100808354040283529160200191611b7e565b820191906000526020600020905b815481529060010190602001808311611b6157829003601f168201915b50505050509250600460008781526020019081526020016000206003018054600181600116156101000203166002900480601f016020809104026020016040519081016040528092919081815260200182805460018160011615610100020316600290048015611c2f5780601f10611c0457610100808354040283529160200191611c2f565b820191906000526020600020905b815481529060010190602001808311611c1257829003601f168201915b505050505091506004600087815260200190815260200160002060040160009054906101000a900460ff16905091939590929450565b6003600083815260200190815260200160002060000160009054906101000a900473ffffffffffffffffffffffffffffffffffffffff1673ffffffffffffffffffffffffffffffffffffffff163373ffffffffffffffffffffffffffffffffffffffff16141515611d3e576040517f08c379a000000000000000000000000000000000000000000000000000000000815260040180806020018281038252601c8152602001807f4f6e6c792070726f626c656d207365747465722063616e20656469740000000081525060200191505060405180910390fd5b6003600083815260200190815260200160002060060160009054906101000a900460ff161515611dd6576040517f08c379a000000000000000000000000000000000000000000000000000000000815260040180806020018281038252600a8152602001807f496e76616c69642049440000000000000000000000000000000000000000000081525060200191505060405180910390fd5b80600360008481526020019081526020016000206002019080519060200190611e00929190612022565b505050565b60606040805190810160405280600581526020017f48656c6c6f000000000000000000000000000000000000000000000000000000815250905090565b6003600083815260200190815260200160002060000160009054906101000a900473ffffffffffffffffffffffffffffffffffffffff1673ffffffffffffffffffffffffffffffffffffffff163373ffffffffffffffffffffffffffffffffffffffff16141515611f1b576040517f08c379a000000000000000000000000000000000000000000000000000000000815260040180806020018281038252601c8152602001807f4f6e6c792070726f626c656d207365747465722063616e20656469740000000081525060200191505060405180910390fd5b6003600083815260200190815260200160002060060160009054906101000a900460ff161515611fb3576040517f08c379a000000000000000000000000000000000000000000000000000000000815260040180806020018281038252600a8152602001807f496e76616c69642049440000000000000000000000000000000000000000000081525060200191505060405180910390fd5b80600360008481526020019081526020016000206004019080519060200190611fdd929190612022565b505050565b60006003600083815260200190815260200160002060000160009054906101000a900473ffffffffffffffffffffffffffffffffffffffff169050919050565b828054600181600116156101000203166002900490600052602060002090601f016020900481019282601f1061206357805160ff1916838001178555612091565b82800160010185558215612091579182015b82811115612090578251825591602001919060010190612075565b5b50905061209e91906120a2565b5090565b6120c491905b808211156120c05760008160009055506001016120a8565b5090565b905600a165627a7a72305820fc904cf4c8f779a9c6df785ac121ea1a96969fc4d26a3cda42968578501e3c3e0029",
  "source": "pragma solidity ^0.4.24;\r\n\r\ncontract Bounty {\r\n    address owner;\r\n    uint[] problemIDs;\r\n    uint[] solutionIDs;\r\n\r\n    \r\n    mapping(uint => Problem) problems;\r\n    mapping(uint => Solution) solutions;\r\n    mapping(uint => uint[]) solutionsToProblem;\r\n\r\n    struct Problem {\r\n        address setterAddress;\r\n        string name;\r\n        string description;\r\n        string input;\r\n        string output;\r\n        uint priceTag;\r\n        bool isActive;\r\n    }\r\n    \r\n    struct Solution {\r\n        address solverAddress;\r\n        uint problemID;\r\n        string content;\r\n        string output;\r\n        bool isCorrect;\r\n    }\r\n    \r\n    \r\n    // Initialise the contract\r\n    constructor() public payable {\r\n        owner = msg.sender;\r\n    } \r\n    \r\n    //Fallback function\r\n    function () public payable {}\r\n    \r\n\r\n    // Get owner address\r\n    function getOwner() public view \r\n        returns (address)\r\n    {\r\n        return owner;\r\n    }\r\n\r\n    // Hello\r\n    function greet() public pure \r\n        returns (string) \r\n    {\r\n        return \"Hello\";\r\n    }\r\n\r\n    // Create Problem\r\n    function createProblem(string name_, string description_, string input_, string output_) public payable\r\n    {\r\n        require(msg.value > 0, \"Please deposit more bounties\");\r\n        uint newID = problemIDs.length;\r\n        problemIDs.push(newID);\r\n        Problem storage newProblem = problems[newID];\r\n        newProblem.setterAddress = msg.sender;\r\n        newProblem.name = name_;\r\n        newProblem.description = description_;\r\n        newProblem.input = input_;\r\n        newProblem.output = output_;\r\n        newProblem.priceTag = msg.value;  // Check the unit of msg.value (ether or wei?)\r\n        newProblem.isActive = true;\r\n    }\r\n    \r\n    \r\n    // Get ProblemCount\r\n    function getProblemCount () public view\r\n        returns (uint problemCount)\r\n    {\r\n        problemCount = problemIDs.length;\r\n    }\r\n    \r\n    // Get ProblemSetterAddress\r\n     function getProblemSetterAddress(uint id_) public view\r\n        returns (address setterAddress_)\r\n    {\r\n        setterAddress_ = problems[id_].setterAddress;\r\n    }\r\n\r\n    // Get Problem\r\n    function getProblem(uint id_) public view\r\n            returns (address setterAddress, string name, string description, string input, string output, uint priceTag, bool isActive)\r\n    {\r\n        Problem storage currentProblem = problems[id_];\r\n        require(currentProblem.isActive, \"Invalid ID\");\r\n        return(\r\n        currentProblem.setterAddress,\r\n        currentProblem.name,\r\n        currentProblem.description,\r\n        currentProblem.input,\r\n        currentProblem.output,\r\n        currentProblem.priceTag,\r\n        currentProblem.isActive);\r\n    }\r\n    \r\n    \r\n    // Update Problem\r\n    function updateProblemName(uint id_, string name_) public\r\n    {\r\n        require(msg.sender == problems[id_].setterAddress, \"Only problem setter can edit\");\r\n        require(problems[id_].isActive, \"Invalid ID\");\r\n        problems[id_].name = name_;\r\n    }\r\n    \r\n    \r\n    function updateProblemDescription(uint id_, string description_) public\r\n    {\r\n        require(msg.sender == problems[id_].setterAddress, \"Only problem setter can edit\");\r\n        require(problems[id_].isActive, \"Invalid ID\");\r\n        problems[id_].description = description_;\r\n    }\r\n    \r\n    \r\n    function updateProblemInput(uint id_, string input_) public\r\n    {\r\n        require(msg.sender == problems[id_].setterAddress, \"Only problem setter can edit\");\r\n        require(problems[id_].isActive, \"Invalid ID\");\r\n        problems[id_].input = input_;\r\n    }\r\n    \r\n    \r\n    function updateProblemOutput(uint id_, string output_) public\r\n    {\r\n        require(msg.sender == problems[id_].setterAddress, \"Only problem setter can edit\");\r\n        require(problems[id_].isActive, \"Invalid ID\");\r\n        problems[id_].output = output_;\r\n    }\r\n    \r\n    \r\n    function updateProblemPriceTag(uint id_) public payable\r\n    {\r\n        require(msg.sender == problems[id_].setterAddress, \"Only problem setter can edit\");\r\n        require(problems[id_].isActive, \"Invalid ID\");\r\n        problems[id_].priceTag += msg.value;\r\n    }\r\n    \r\n    \r\n    // Remove Problem (inactive)\r\n    function removeProblem(uint id_) public {\r\n        Problem storage currentProblem = problems[id_];\r\n        require(msg.sender == currentProblem.setterAddress, \" Only problem setter can remove the problem\");\r\n        require(currentProblem.isActive, \"Problem already archieved\");\r\n        currentProblem.isActive = false;\r\n        uint retrieval = currentProblem.priceTag;\r\n        currentProblem.priceTag = 0;\r\n        currentProblem.setterAddress.transfer(retrieval);\r\n    }\r\n    \r\n    \r\n    // Check Answer [internal]\r\n    function createSolution(uint id_, string content_, string output_) public \r\n    {   \r\n        // ??????required id_ valid\r\n        require(id_<=problemIDs.length, \"Problem not found\");\r\n        uint newSolutionID = solutionIDs.length;\r\n        solutionIDs.push(newSolutionID);\r\n        // Add new ID to solutionsToProblem mapping\r\n        solutionsToProblem[id_].push(newSolutionID);\r\n        //Create new solution and map to solutionID\r\n        Solution storage solution = solutions[newSolutionID];\r\n        solution.problemID = id_;\r\n        solution.content = content_;\r\n        solution.output = output_;\r\n        solution.solverAddress = msg.sender;    \r\n        \r\n        if (keccak256(output_) == keccak256(\"123\")){\r\n            solution.isCorrect = true;\r\n            address winner = solution.solverAddress;\r\n            uint prize = problems[id_].priceTag;\r\n            problems[id_].priceTag = 0;\r\n            winner.transfer(prize);\r\n        }\r\n        else\r\n            solution.isCorrect = false;\r\n        \r\n    }\r\n    \r\n    // Get SolutionCount\r\n    function getSolutionCount () public view\r\n        returns (uint solutionCount)\r\n    {\r\n        solutionCount = solutionIDs.length;\r\n    }\r\n\r\n    // View personal solutions (tbd)\r\n    function getSolutionIDsByProblemID(uint problemID_) public view\r\n        returns(uint[] solutionIDs_)\r\n    {\r\n        solutionIDs_ = solutionsToProblem[problemID_];\r\n    }\r\n\r\n\r\n\r\n    function getSolutionBySolutionID(uint solutionID_) public view\r\n        returns(\r\n        address solverAddress, \r\n        uint problemID,\r\n        string content,\r\n        string output,\r\n        bool isCorrect)\r\n    {\r\n        solverAddress = solutions[solutionID_].solverAddress;\r\n        problemID = solutions[solutionID_].problemID;\r\n        content = solutions[solutionID_].content;\r\n        output = solutions[solutionID_].output;\r\n        isCorrect = solutions[solutionID_].isCorrect;\r\n    }\r\n\r\n}",
  "sourcePath": "C:\\Users\\Thinh\\Solidity\\FYP\\contracts\\Bounty.sol",
  "compiler": {
    "name": "solc",
    "version": "0.4.24+commit.e67f0147.Emscripten.clang"
  },
  "schemaVersion": "2.0.1",
  "updatedAt": "2018-10-18T05:09:07.666Z"
}