{
  "contractName": "Bounty",
  "abi": [
    {
      "inputs": [],
      "payable": true,
      "stateMutability": "payable",
      "type": "constructor"
    },
    {
      "payable": true,
      "stateMutability": "payable",
      "type": "fallback"
    },
    {
      "constant": true,
      "inputs": [],
      "name": "getOwner",
      "outputs": [
        {
          "name": "",
          "type": "address"
        }
      ],
      "payable": false,
      "stateMutability": "view",
      "type": "function"
    },
    {
      "constant": true,
      "inputs": [],
      "name": "greet",
      "outputs": [
        {
          "name": "",
          "type": "string"
        }
      ],
      "payable": false,
      "stateMutability": "pure",
      "type": "function"
    },
    {
      "constant": false,
      "inputs": [
        {
          "name": "name_",
          "type": "string"
        },
        {
          "name": "description_",
          "type": "string"
        },
        {
          "name": "input_",
          "type": "string"
        },
        {
          "name": "output_",
          "type": "string"
        }
      ],
      "name": "createProblem",
      "outputs": [],
      "payable": true,
      "stateMutability": "payable",
      "type": "function"
    },
    {
      "constant": true,
      "inputs": [],
      "name": "getProblemCount",
      "outputs": [
        {
          "name": "problemCount",
          "type": "uint256"
        }
      ],
      "payable": false,
      "stateMutability": "view",
      "type": "function"
    },
    {
      "constant": true,
      "inputs": [
        {
          "name": "id_",
          "type": "uint256"
        }
      ],
      "name": "getProblemSetterAddress",
      "outputs": [
        {
          "name": "setterAddress_",
          "type": "address"
        }
      ],
      "payable": false,
      "stateMutability": "view",
      "type": "function"
    },
    {
      "constant": true,
      "inputs": [
        {
          "name": "id_",
          "type": "uint256"
        }
      ],
      "name": "getProblem",
      "outputs": [
        {
          "name": "setterAddress",
          "type": "address"
        },
        {
          "name": "name",
          "type": "string"
        },
        {
          "name": "description",
          "type": "string"
        },
        {
          "name": "input",
          "type": "string"
        },
        {
          "name": "output",
          "type": "string"
        },
        {
          "name": "priceTag",
          "type": "uint256"
        },
        {
          "name": "isActive",
          "type": "bool"
        }
      ],
      "payable": false,
      "stateMutability": "view",
      "type": "function"
    },
    {
      "constant": false,
      "inputs": [
        {
          "name": "id_",
          "type": "uint256"
        },
        {
          "name": "name_",
          "type": "string"
        }
      ],
      "name": "updateProblemName",
      "outputs": [],
      "payable": false,
      "stateMutability": "nonpayable",
      "type": "function"
    },
    {
      "constant": false,
      "inputs": [
        {
          "name": "id_",
          "type": "uint256"
        },
        {
          "name": "description_",
          "type": "string"
        }
      ],
      "name": "updateProblemDescription",
      "outputs": [],
      "payable": false,
      "stateMutability": "nonpayable",
      "type": "function"
    },
    {
      "constant": false,
      "inputs": [
        {
          "name": "id_",
          "type": "uint256"
        },
        {
          "name": "input_",
          "type": "string"
        }
      ],
      "name": "updateProblemInput",
      "outputs": [],
      "payable": false,
      "stateMutability": "nonpayable",
      "type": "function"
    },
    {
      "constant": false,
      "inputs": [
        {
          "name": "id_",
          "type": "uint256"
        },
        {
          "name": "output_",
          "type": "string"
        }
      ],
      "name": "updateProblemOutput",
      "outputs": [],
      "payable": false,
      "stateMutability": "nonpayable",
      "type": "function"
    },
    {
      "constant": false,
      "inputs": [
        {
          "name": "id_",
          "type": "uint256"
        }
      ],
      "name": "updateProblemPriceTag",
      "outputs": [],
      "payable": true,
      "stateMutability": "payable",
      "type": "function"
    },
    {
      "constant": false,
      "inputs": [
        {
          "name": "id_",
          "type": "uint256"
        }
      ],
      "name": "removeProblem",
      "outputs": [],
      "payable": false,
      "stateMutability": "nonpayable",
      "type": "function"
    },
    {
      "constant": false,
      "inputs": [
        {
          "name": "id_",
          "type": "uint256"
        },
        {
          "name": "content_",
          "type": "string"
        },
        {
          "name": "output_",
          "type": "string"
        }
      ],
      "name": "createSolution",
      "outputs": [],
      "payable": false,
      "stateMutability": "nonpayable",
      "type": "function"
    },
    {
      "constant": true,
      "inputs": [],
      "name": "getSolutionCount",
      "outputs": [
        {
          "name": "solutionCount",
          "type": "uint256"
        }
      ],
      "payable": false,
      "stateMutability": "view",
      "type": "function"
    },
    {
      "constant": true,
      "inputs": [
        {
          "name": "problemID_",
          "type": "uint256"
        }
      ],
      "name": "getSolutionIDsByProblemID",
      "outputs": [
        {
          "name": "solutionIDs_",
          "type": "uint256[]"
        }
      ],
      "payable": false,
      "stateMutability": "view",
      "type": "function"
    },
    {
      "constant": true,
      "inputs": [
        {
          "name": "solutionID_",
          "type": "uint256"
        }
      ],
      "name": "getSolutionBySolutionID",
      "outputs": [
        {
          "name": "solverAddress",
          "type": "address"
        },
        {
          "name": "problemID",
          "type": "uint256"
        },
        {
          "name": "content",
          "type": "string"
        },
        {
          "name": "output",
          "type": "string"
        },
        {
          "name": "isCorrect",
          "type": "bool"
        }
      ],
      "payable": false,
      "stateMutability": "view",
      "type": "function"
    },
    {
      "constant": true,
      "inputs": [
        {
          "name": "solutionID_",
          "type": "uint256"
        }
      ],
      "name": "getProblemSolverAddress",
      "outputs": [
        {
          "name": "solverAddress_",
          "type": "address"
        }
      ],
      "payable": false,
      "stateMutability": "view",
      "type": "function"
    },
    {
      "constant": false,
      "inputs": [
        {
          "name": "problemID_",
          "type": "uint256"
        },
        {
          "name": "amount_",
          "type": "uint256"
        },
        {
          "name": "solutionID_",
          "type": "uint256"
        }
      ],
      "name": "transferRewards",
      "outputs": [],
      "payable": true,
      "stateMutability": "payable",
      "type": "function"
    }
  ],
  "bytecode": "0x6080604052336000806101000a81548173ffffffffffffffffffffffffffffffffffffffff021916908373ffffffffffffffffffffffffffffffffffffffff160217905550612426806100536000396000f3006080604052600436106100fc576000357c0100000000000000000000000000000000000000000000000000000000900463ffffffff168063010d2446146100fe5780630182a6d71461032d5780631b3e1921146103a05780631f8177d71461040d57806336da3f001461044157806346bb1edd146104c3578063500eec7b146105f157806376295e321461061c57806376dcf4f5146106d5578063793d2bf4146107005780637f35bc0d14610773578063893d20e8146107935780638b4c91cb146107ea578063bebcafc714610817578063cdd69a501461096e578063cfae3217146109e1578063d94c70a414610a71578063f0f397bf14610ae4575b005b34801561010a57600080fd5b5061012960048036038101908080359060200190929190505050610b51565b604051808873ffffffffffffffffffffffffffffffffffffffff1673ffffffffffffffffffffffffffffffffffffffff168152602001806020018060200180602001806020018781526020018615151515815260200185810385528b818151815260200191508051906020019080838360005b838110156101b757808201518184015260208101905061019c565b50505050905090810190601f1680156101e45780820380516001836020036101000a031916815260200191505b5085810384528a818151815260200191508051906020019080838360005b8381101561021d578082015181840152602081019050610202565b50505050905090810190601f16801561024a5780820380516001836020036101000a031916815260200191505b50858103835289818151815260200191508051906020019080838360005b83811015610283578082015181840152602081019050610268565b50505050905090810190601f1680156102b05780820380516001836020036101000a031916815260200191505b50858103825288818151815260200191508051906020019080838360005b838110156102e95780820151818401526020810190506102ce565b50505050905090810190601f1680156103165780820380516001836020036101000a031916815260200191505b509b50505050505050505050505060405180910390f35b34801561033957600080fd5b5061039e60048036038101908080359060200190929190803590602001908201803590602001908080601f0160208091040260200160405190810160405280939291908181526020018383808284378201915050505050509192919290505050610ecf565b005b3480156103ac57600080fd5b506103cb6004803603810190808035906020019092919050505061106f565b604051808273ffffffffffffffffffffffffffffffffffffffff1673ffffffffffffffffffffffffffffffffffffffff16815260200191505060405180910390f35b61043f6004803603810190808035906020019092919080359060200190929190803590602001909291905050506110af565b005b34801561044d57600080fd5b5061046c600480360381019080803590602001909291905050506112eb565b6040518080602001828103825283818151815260200191508051906020019060200280838360005b838110156104af578082015181840152602081019050610494565b505050509050019250505060405180910390f35b6105ef600480360381019080803590602001908201803590602001908080601f0160208091040260200160405190810160405280939291908181526020018383808284378201915050505050509192919290803590602001908201803590602001908080601f0160208091040260200160405190810160405280939291908181526020018383808284378201915050505050509192919290803590602001908201803590602001908080601f0160208091040260200160405190810160405280939291908181526020018383808284378201915050505050509192919290803590602001908201803590602001908080601f0160208091040260200160405190810160405280939291908181526020018383808284378201915050505050509192919290505050611356565b005b3480156105fd57600080fd5b506106066114ef565b6040518082815260200191505060405180910390f35b34801561062857600080fd5b506106d360048036038101908080359060200190929190803590602001908201803590602001908080601f0160208091040260200160405190810160405280939291908181526020018383808284378201915050505050509192919290803590602001908201803590602001908080601f01602080910402602001604051908101604052809392919081815260200183838082843782019150505050505091929192905050506114fc565b005b3480156106e157600080fd5b506106ea611816565b6040518082815260200191505060405180910390f35b34801561070c57600080fd5b5061077160048036038101908080359060200190929190803590602001908201803590602001908080601f0160208091040260200160405190810160405280939291908181526020018383808284378201915050505050509192919290505050611823565b005b610791600480360381019080803590602001909291905050506119c3565b005b34801561079f57600080fd5b506107a8611b5b565b604051808273ffffffffffffffffffffffffffffffffffffffff1673ffffffffffffffffffffffffffffffffffffffff16815260200191505060405180910390f35b3480156107f657600080fd5b5061081560048036038101908080359060200190929190505050611b84565b005b34801561082357600080fd5b5061084260048036038101908080359060200190929190505050611dad565b604051808673ffffffffffffffffffffffffffffffffffffffff1673ffffffffffffffffffffffffffffffffffffffff168152602001858152602001806020018060200184151515158152602001838103835286818151815260200191508051906020019080838360005b838110156108c85780820151818401526020810190506108ad565b50505050905090810190601f1680156108f55780820380516001836020036101000a031916815260200191505b50838103825285818151815260200191508051906020019080838360005b8381101561092e578082015181840152602081019050610913565b50505050905090810190601f16801561095b5780820380516001836020036101000a031916815260200191505b5097505050505050505060405180910390f35b34801561097a57600080fd5b506109df60048036038101908080359060200190929190803590602001908201803590602001908080601f0160208091040260200160405190810160405280939291908181526020018383808284378201915050505050509192919290505050611f98565b005b3480156109ed57600080fd5b506109f6612138565b6040518080602001828103825283818151815260200191508051906020019080838360005b83811015610a36578082015181840152602081019050610a1b565b50505050905090810190601f168015610a635780820380516001836020036101000a031916815260200191505b509250505060405180910390f35b348015610a7d57600080fd5b50610ae260048036038101908080359060200190929190803590602001908201803590602001908080601f0160208091040260200160405190810160405280939291908181526020018383808284378201915050505050509192919290505050612175565b005b348015610af057600080fd5b50610b0f60048036038101908080359060200190929190505050612315565b604051808273ffffffffffffffffffffffffffffffffffffffff1673ffffffffffffffffffffffffffffffffffffffff16815260200191505060405180910390f35b60006060806060806000806000600360008a815260200190815260200160002090508060060160009054906101000a900460ff161515610bf9576040517f08c379a000000000000000000000000000000000000000000000000000000000815260040180806020018281038252600a8152602001807f496e76616c69642049440000000000000000000000000000000000000000000081525060200191505060405180910390fd5b8060000160009054906101000a900473ffffffffffffffffffffffffffffffffffffffff168160010182600201836003018460040185600501548660060160009054906101000a900460ff16858054600181600116156101000203166002900480601f016020809104026020016040519081016040528092919081815260200182805460018160011615610100020316600290048015610cda5780601f10610caf57610100808354040283529160200191610cda565b820191906000526020600020905b815481529060010190602001808311610cbd57829003601f168201915b50505050509550848054600181600116156101000203166002900480601f016020809104026020016040519081016040528092919081815260200182805460018160011615610100020316600290048015610d765780601f10610d4b57610100808354040283529160200191610d76565b820191906000526020600020905b815481529060010190602001808311610d5957829003601f168201915b50505050509450838054600181600116156101000203166002900480601f016020809104026020016040519081016040528092919081815260200182805460018160011615610100020316600290048015610e125780601f10610de757610100808354040283529160200191610e12565b820191906000526020600020905b815481529060010190602001808311610df557829003601f168201915b50505050509350828054600181600116156101000203166002900480601f016020809104026020016040519081016040528092919081815260200182805460018160011615610100020316600290048015610eae5780601f10610e8357610100808354040283529160200191610eae565b820191906000526020600020905b815481529060010190602001808311610e9157829003601f168201915b50505050509250975097509750975097509750975050919395979092949650565b6003600083815260200190815260200160002060000160009054906101000a900473ffffffffffffffffffffffffffffffffffffffff1673ffffffffffffffffffffffffffffffffffffffff163373ffffffffffffffffffffffffffffffffffffffff16141515610fa8576040517f08c379a000000000000000000000000000000000000000000000000000000000815260040180806020018281038252601c8152602001807f4f6e6c792070726f626c656d207365747465722063616e20656469740000000081525060200191505060405180910390fd5b6003600083815260200190815260200160002060060160009054906101000a900460ff161515611040576040517f08c379a000000000000000000000000000000000000000000000000000000000815260040180806020018281038252600a8152602001807f496e76616c69642049440000000000000000000000000000000000000000000081525060200191505060405180910390fd5b8060036000848152602001908152602001600020600101908051906020019061106a929190612355565b505050565b60006004600083815260200190815260200160002060000160009054906101000a900473ffffffffffffffffffffffffffffffffffffffff169050919050565b60006003600085815260200190815260200160002060050154831115151561113f576040517f08c379a00000000000000000000000000000000000000000000000000000000081526004018080602001828103825260118152602001807f496e73756666696369656e742066756e6400000000000000000000000000000081525060200191505060405180910390fd5b3073ffffffffffffffffffffffffffffffffffffffff16631b3e1921836040518263ffffffff167c010000000000000000000000000000000000000000000000000000000002815260040180828152602001915050602060405180830381600087803b1580156111ae57600080fd5b505af11580156111c2573d6000803e3d6000fd5b505050506040513d60208110156111d857600080fd5b8101908080519060200190929190505050905060008173ffffffffffffffffffffffffffffffffffffffff161415151561127a576040517f08c379a00000000000000000000000000000000000000000000000000000000081526004018080602001828103825260138152602001807f496e76616c696420536f6c7574696f6e2049440000000000000000000000000081525060200191505060405180910390fd5b8260036000868152602001908152602001600020600501600082825403925050819055508073ffffffffffffffffffffffffffffffffffffffff166108fc849081150290604051600060405180830381858888f193505050501580156112e4573d6000803e3d6000fd5b5050505050565b60606005600083815260200190815260200160002080548060200260200160405190810160405280929190818152602001828054801561134a57602002820191906000526020600020905b815481526020019060010190808311611336575b50505050509050919050565b6000806000341115156113d1576040517f08c379a000000000000000000000000000000000000000000000000000000000815260040180806020018281038252601c8152602001807f506c65617365206465706f736974206d6f726520626f756e746965730000000081525060200191505060405180910390fd5b60018054905091506001829080600181540180825580915050906001820390600052602060002001600090919290919091505550600360008381526020019081526020016000209050338160000160006101000a81548173ffffffffffffffffffffffffffffffffffffffff021916908373ffffffffffffffffffffffffffffffffffffffff16021790555085816001019080519060200190611475929190612355565b508481600201908051906020019061148e929190612355565b50838160030190805190602001906114a7929190612355565b50828160040190805190602001906114c0929190612355565b5034816005018190555060018160060160006101000a81548160ff021916908315150217905550505050505050565b6000600180549050905090565b600080600080600180549050871115151561157f576040517f08c379a00000000000000000000000000000000000000000000000000000000081526004018080602001828103825260118152602001807f50726f626c656d206e6f7420666f756e6400000000000000000000000000000081525060200191505060405180910390fd5b600280549050935060028490806001815401808255809150509060018203906000526020600020016000909192909190915055506005600088815260200190815260200160002084908060018154018082558091505090600182039060005260206000200160009091929091909150555060046000858152602001908152602001600020925086836001018190555085836002019080519060200190611626929190612355565b508483600301908051906020019061163f929190612355565b50338360000160006101000a81548173ffffffffffffffffffffffffffffffffffffffff021916908373ffffffffffffffffffffffffffffffffffffffff16021790555060405180807f31323300000000000000000000000000000000000000000000000000000000008152506003019050604051809103902060001916856040518082805190602001908083835b6020831015156116f357805182526020820191506020810190506020830392506116ce565b6001836020036101000a03801982511681845116808217855250505050505090500191505060405180910390206000191614156117ef5760018360040160006101000a81548160ff0219169083151502179055508260000160009054906101000a900473ffffffffffffffffffffffffffffffffffffffff16915060036000888152602001908152602001600020600501549050600060036000898152602001908152602001600020600501819055508173ffffffffffffffffffffffffffffffffffffffff166108fc829081150290604051600060405180830381858888f193505050501580156117e9573d6000803e3d6000fd5b5061180d565b60008360040160006101000a81548160ff0219169083151502179055505b50505050505050565b6000600280549050905090565b6003600083815260200190815260200160002060000160009054906101000a900473ffffffffffffffffffffffffffffffffffffffff1673ffffffffffffffffffffffffffffffffffffffff163373ffffffffffffffffffffffffffffffffffffffff161415156118fc576040517f08c379a000000000000000000000000000000000000000000000000000000000815260040180806020018281038252601c8152602001807f4f6e6c792070726f626c656d207365747465722063616e20656469740000000081525060200191505060405180910390fd5b6003600083815260200190815260200160002060060160009054906101000a900460ff161515611994576040517f08c379a000000000000000000000000000000000000000000000000000000000815260040180806020018281038252600a8152602001807f496e76616c69642049440000000000000000000000000000000000000000000081525060200191505060405180910390fd5b806003600084815260200190815260200160002060030190805190602001906119be929190612355565b505050565b6003600082815260200190815260200160002060000160009054906101000a900473ffffffffffffffffffffffffffffffffffffffff1673ffffffffffffffffffffffffffffffffffffffff163373ffffffffffffffffffffffffffffffffffffffff16141515611a9c576040517f08c379a000000000000000000000000000000000000000000000000000000000815260040180806020018281038252601c8152602001807f4f6e6c792070726f626c656d207365747465722063616e20656469740000000081525060200191505060405180910390fd5b6003600082815260200190815260200160002060060160009054906101000a900460ff161515611b34576040517f08c379a000000000000000000000000000000000000000000000000000000000815260040180806020018281038252600a8152602001807f496e76616c69642049440000000000000000000000000000000000000000000081525060200191505060405180910390fd5b34600360008381526020019081526020016000206005016000828254019250508190555050565b60008060009054906101000a900473ffffffffffffffffffffffffffffffffffffffff16905090565b6000806003600084815260200190815260200160002091508160000160009054906101000a900473ffffffffffffffffffffffffffffffffffffffff1673ffffffffffffffffffffffffffffffffffffffff163373ffffffffffffffffffffffffffffffffffffffff16141515611c89576040517f08c379a000000000000000000000000000000000000000000000000000000000815260040180806020018281038252602b8152602001807f204f6e6c792070726f626c656d207365747465722063616e2072656d6f76652081526020017f7468652070726f626c656d00000000000000000000000000000000000000000081525060400191505060405180910390fd5b8160060160009054906101000a900460ff161515611d0f576040517f08c379a00000000000000000000000000000000000000000000000000000000081526004018080602001828103825260198152602001807f50726f626c656d20616c7265616479206172636869657665640000000000000081525060200191505060405180910390fd5b60008260060160006101000a81548160ff02191690831515021790555081600501549050600082600501819055508160000160009054906101000a900473ffffffffffffffffffffffffffffffffffffffff1673ffffffffffffffffffffffffffffffffffffffff166108fc829081150290604051600060405180830381858888f19350505050158015611da7573d6000803e3d6000fd5b50505050565b60008060608060006004600087815260200190815260200160002060000160009054906101000a900473ffffffffffffffffffffffffffffffffffffffff16945060046000878152602001908152602001600020600101549350600460008781526020019081526020016000206002018054600181600116156101000203166002900480601f016020809104026020016040519081016040528092919081815260200182805460018160011615610100020316600290048015611eb15780601f10611e8657610100808354040283529160200191611eb1565b820191906000526020600020905b815481529060010190602001808311611e9457829003601f168201915b50505050509250600460008781526020019081526020016000206003018054600181600116156101000203166002900480601f016020809104026020016040519081016040528092919081815260200182805460018160011615610100020316600290048015611f625780601f10611f3757610100808354040283529160200191611f62565b820191906000526020600020905b815481529060010190602001808311611f4557829003601f168201915b505050505091506004600087815260200190815260200160002060040160009054906101000a900460ff16905091939590929450565b6003600083815260200190815260200160002060000160009054906101000a900473ffffffffffffffffffffffffffffffffffffffff1673ffffffffffffffffffffffffffffffffffffffff163373ffffffffffffffffffffffffffffffffffffffff16141515612071576040517f08c379a000000000000000000000000000000000000000000000000000000000815260040180806020018281038252601c8152602001807f4f6e6c792070726f626c656d207365747465722063616e20656469740000000081525060200191505060405180910390fd5b6003600083815260200190815260200160002060060160009054906101000a900460ff161515612109576040517f08c379a000000000000000000000000000000000000000000000000000000000815260040180806020018281038252600a8152602001807f496e76616c69642049440000000000000000000000000000000000000000000081525060200191505060405180910390fd5b80600360008481526020019081526020016000206002019080519060200190612133929190612355565b505050565b60606040805190810160405280600581526020017f48656c6c6f000000000000000000000000000000000000000000000000000000815250905090565b6003600083815260200190815260200160002060000160009054906101000a900473ffffffffffffffffffffffffffffffffffffffff1673ffffffffffffffffffffffffffffffffffffffff163373ffffffffffffffffffffffffffffffffffffffff1614151561224e576040517f08c379a000000000000000000000000000000000000000000000000000000000815260040180806020018281038252601c8152602001807f4f6e6c792070726f626c656d207365747465722063616e20656469740000000081525060200191505060405180910390fd5b6003600083815260200190815260200160002060060160009054906101000a900460ff1615156122e6576040517f08c379a000000000000000000000000000000000000000000000000000000000815260040180806020018281038252600a8152602001807f496e76616c69642049440000000000000000000000000000000000000000000081525060200191505060405180910390fd5b80600360008481526020019081526020016000206004019080519060200190612310929190612355565b505050565b60006003600083815260200190815260200160002060000160009054906101000a900473ffffffffffffffffffffffffffffffffffffffff169050919050565b828054600181600116156101000203166002900490600052602060002090601f016020900481019282601f1061239657805160ff19168380011785556123c4565b828001600101855582156123c4579182015b828111156123c35782518255916020019190600101906123a8565b5b5090506123d191906123d5565b5090565b6123f791905b808211156123f35760008160009055506001016123db565b5090565b905600a165627a7a72305820ead2c1ce2c9814f17fd0fa22864569ee8e22da07f99689b723db862a05af19fa0029",
  "source": "pragma solidity ^0.4.24;\n\ncontract Bounty {\n    address owner;\n    uint[] problemIDs;\n    uint[] solutionIDs;\n\n    \n    mapping(uint => Problem) problems;\n    mapping(uint => Solution) solutions;\n    mapping(uint => uint[]) solutionsToProblem;\n\n    struct Problem {\n        address setterAddress;\n        string name;\n        string description;\n        string input;\n        string output;\n        uint priceTag;\n        bool isActive;\n    }\n    \n    struct Solution {\n        address solverAddress;\n        uint problemID;\n        string content;\n        string output;\n        bool isCorrect;\n    }\n    \n    \n    // Initialise the contract\n    constructor() public payable {\n        owner = msg.sender;\n    } \n    \n    //Fallback function\n    function () public payable {}\n    \n\n    // Get owner address\n    function getOwner() public view \n        returns (address)\n    {\n        return owner;\n    }\n\n    // Hello\n    function greet() public pure \n        returns (string) \n    {\n        return \"Hello\";\n    }\n\n    // Create Problem\n    function createProblem(string name_, string description_, string input_, string output_) public payable\n    {\n        require(msg.value > 0, \"Please deposit more bounties\");\n        uint newID = problemIDs.length;\n        problemIDs.push(newID);\n        Problem storage newProblem = problems[newID];\n        newProblem.setterAddress = msg.sender;\n        newProblem.name = name_;\n        newProblem.description = description_;\n        newProblem.input = input_;\n        newProblem.output = output_;\n        newProblem.priceTag = msg.value;  // Check the unit of msg.value (ether or wei?)\n        newProblem.isActive = true;\n    }\n    \n    \n    // Get ProblemCount\n    function getProblemCount () public view\n        returns (uint problemCount)\n    {\n        problemCount = problemIDs.length;\n    }\n    \n    // Get ProblemSetterAddress\n    function getProblemSetterAddress(uint id_) public view\n        returns (address setterAddress_)\n    {\n        setterAddress_ = problems[id_].setterAddress;\n    }\n\n    // Get Problem\n    function getProblem(uint id_) public view\n            returns (address setterAddress, string name, string description, string input, string output, uint priceTag, bool isActive)\n    {\n        Problem storage currentProblem = problems[id_];\n        require(currentProblem.isActive, \"Invalid ID\");\n        return(\n        currentProblem.setterAddress,\n        currentProblem.name,\n        currentProblem.description,\n        currentProblem.input,\n        currentProblem.output,\n        currentProblem.priceTag,\n        currentProblem.isActive);\n    }\n    \n    \n    // Update Problem\n    function updateProblemName(uint id_, string name_) public\n    {\n        require(msg.sender == problems[id_].setterAddress, \"Only problem setter can edit\");\n        require(problems[id_].isActive, \"Invalid ID\");\n        problems[id_].name = name_;\n    }\n    \n    \n    function updateProblemDescription(uint id_, string description_) public\n    {\n        require(msg.sender == problems[id_].setterAddress, \"Only problem setter can edit\");\n        require(problems[id_].isActive, \"Invalid ID\");\n        problems[id_].description = description_;\n    }\n    \n    \n    function updateProblemInput(uint id_, string input_) public\n    {\n        require(msg.sender == problems[id_].setterAddress, \"Only problem setter can edit\");\n        require(problems[id_].isActive, \"Invalid ID\");\n        problems[id_].input = input_;\n    }\n    \n    \n    function updateProblemOutput(uint id_, string output_) public\n    {\n        require(msg.sender == problems[id_].setterAddress, \"Only problem setter can edit\");\n        require(problems[id_].isActive, \"Invalid ID\");\n        problems[id_].output = output_;\n    }\n    \n    \n    function updateProblemPriceTag(uint id_) public payable\n    {\n        require(msg.sender == problems[id_].setterAddress, \"Only problem setter can edit\");\n        require(problems[id_].isActive, \"Invalid ID\");\n        problems[id_].priceTag += msg.value;\n    }\n    \n    \n    // Remove Problem (inactive)\n    function removeProblem(uint id_) public {\n        Problem storage currentProblem = problems[id_];\n        require(msg.sender == currentProblem.setterAddress, \" Only problem setter can remove the problem\");\n        require(currentProblem.isActive, \"Problem already archieved\");\n        currentProblem.isActive = false;\n        uint retrieval = currentProblem.priceTag;\n        currentProblem.priceTag = 0;\n        currentProblem.setterAddress.transfer(retrieval);\n    }\n    \n    \n    // Check Answer [internal]\n    function createSolution(uint id_, string content_, string output_) public \n    {   \n        // ??????required id_ valid\n        require(id_<=problemIDs.length, \"Problem not found\");\n        uint newSolutionID = solutionIDs.length;\n        solutionIDs.push(newSolutionID);\n        // Add new ID to solutionsToProblem mapping\n        solutionsToProblem[id_].push(newSolutionID);\n        //Create new solution and map to solutionID\n        Solution storage solution = solutions[newSolutionID];\n        solution.problemID = id_;\n        solution.content = content_;\n        solution.output = output_;\n        solution.solverAddress = msg.sender;    \n        \n        if (keccak256(output_) == keccak256(\"123\")){\n            solution.isCorrect = true;\n            address winner = solution.solverAddress;\n            uint prize = problems[id_].priceTag;\n            problems[id_].priceTag = 0;\n            winner.transfer(prize);\n        }\n        else\n            solution.isCorrect = false;\n        \n    }\n    \n    // Get SolutionCount\n    function getSolutionCount () public view\n        returns (uint solutionCount)\n    {\n        solutionCount = solutionIDs.length;\n    }\n\n    // View personal solutions (tbd)\n    function getSolutionIDsByProblemID(uint problemID_) public view\n        returns(uint[] solutionIDs_)\n    {\n        solutionIDs_ = solutionsToProblem[problemID_];\n    }\n\n\n\n    function getSolutionBySolutionID(uint solutionID_) public view\n        returns(\n        address solverAddress, \n        uint problemID,\n        string content,\n        string output,\n        bool isCorrect)\n    {\n        solverAddress = solutions[solutionID_].solverAddress;\n        problemID = solutions[solutionID_].problemID;\n        content = solutions[solutionID_].content;\n        output = solutions[solutionID_].output;\n        isCorrect = solutions[solutionID_].isCorrect;\n    }\n\n    // Get ProblemSetterAddress\n    function getProblemSolverAddress(uint solutionID_) external view\n        returns (address solverAddress_)\n    {\n        solverAddress_ = solutions[solutionID_].solverAddress;\n    }\n\n    function transferRewards(uint problemID_, uint amount_, uint solutionID_) public payable\n    {\n        // compute new priceTag\n        require(amount_ <= problems[problemID_].priceTag, \"Insufficient fund\");\n        address receiver = this.getProblemSolverAddress(solutionID_);\n        require(receiver!=0,\"Invalid Solution ID\");\n        problems[problemID_].priceTag -= amount_;\n        // send money to the receiver\n        receiver.transfer(amount_);\n    }   \n}",
  "sourcePath": "/home/do/Bounty/contracts/Bounty.sol",
  "compiler": {
    "name": "solc",
    "version": "0.4.24+commit.e67f0147.Emscripten.clang"
  },
  "schemaVersion": "2.0.1",
  "updatedAt": "2018-10-23T13:49:10.306Z"
}